{
  "_format": "hh-sol-artifact-1",
  "contractName": "TokenBank",
  "sourceName": "contracts/TokenBank.sol",
  "abi": [
    {
      "inputs": [
        {
          "internalType": "string",
          "name": "name_",
          "type": "string"
        },
        {
          "internalType": "string",
          "name": "symbol_",
          "type": "string"
        },
        {
          "internalType": "address",
          "name": "nftCount_",
          "type": "address"
        }
      ],
      "stateMutability": "nonpayable",
      "type": "constructor"
    },
    {
      "anonymous": false,
      "inputs": [
        {
          "indexed": true,
          "internalType": "address",
          "name": "from",
          "type": "address"
        },
        {
          "indexed": false,
          "internalType": "uint256",
          "name": "amount",
          "type": "uint256"
        }
      ],
      "name": "TokenDeposit",
      "type": "event"
    },
    {
      "anonymous": false,
      "inputs": [
        {
          "indexed": true,
          "internalType": "address",
          "name": "from",
          "type": "address"
        },
        {
          "indexed": true,
          "internalType": "address",
          "name": "to",
          "type": "address"
        },
        {
          "indexed": false,
          "internalType": "uint256",
          "name": "amount",
          "type": "uint256"
        }
      ],
      "name": "TokenTransfer",
      "type": "event"
    },
    {
      "anonymous": false,
      "inputs": [
        {
          "indexed": true,
          "internalType": "address",
          "name": "from",
          "type": "address"
        },
        {
          "indexed": false,
          "internalType": "uint256",
          "name": "amount",
          "type": "uint256"
        }
      ],
      "name": "TokenWithdraw",
      "type": "event"
    },
    {
      "inputs": [
        {
          "internalType": "address",
          "name": "acount",
          "type": "address"
        }
      ],
      "name": "balanceOf",
      "outputs": [
        {
          "internalType": "uint256",
          "name": "",
          "type": "uint256"
        }
      ],
      "stateMutability": "view",
      "type": "function"
    },
    {
      "inputs": [
        {
          "internalType": "address",
          "name": "account",
          "type": "address"
        }
      ],
      "name": "bankBalanceOf",
      "outputs": [
        {
          "internalType": "uint256",
          "name": "",
          "type": "uint256"
        }
      ],
      "stateMutability": "view",
      "type": "function"
    },
    {
      "inputs": [],
      "name": "bankTotalDeposit",
      "outputs": [
        {
          "internalType": "uint256",
          "name": "",
          "type": "uint256"
        }
      ],
      "stateMutability": "view",
      "type": "function"
    },
    {
      "inputs": [
        {
          "internalType": "uint256",
          "name": "amount",
          "type": "uint256"
        }
      ],
      "name": "deposit",
      "outputs": [],
      "stateMutability": "nonpayable",
      "type": "function"
    },
    {
      "inputs": [],
      "name": "memberToken",
      "outputs": [
        {
          "internalType": "contract MemberToken",
          "name": "",
          "type": "address"
        }
      ],
      "stateMutability": "view",
      "type": "function"
    },
    {
      "inputs": [],
      "name": "name",
      "outputs": [
        {
          "internalType": "string",
          "name": "",
          "type": "string"
        }
      ],
      "stateMutability": "view",
      "type": "function"
    },
    {
      "inputs": [],
      "name": "owner",
      "outputs": [
        {
          "internalType": "address",
          "name": "",
          "type": "address"
        }
      ],
      "stateMutability": "view",
      "type": "function"
    },
    {
      "inputs": [],
      "name": "symbol",
      "outputs": [
        {
          "internalType": "string",
          "name": "",
          "type": "string"
        }
      ],
      "stateMutability": "view",
      "type": "function"
    },
    {
      "inputs": [],
      "name": "totalSupply",
      "outputs": [
        {
          "internalType": "uint256",
          "name": "",
          "type": "uint256"
        }
      ],
      "stateMutability": "pure",
      "type": "function"
    },
    {
      "inputs": [
        {
          "internalType": "address",
          "name": "to",
          "type": "address"
        },
        {
          "internalType": "uint256",
          "name": "amount",
          "type": "uint256"
        }
      ],
      "name": "transfer",
      "outputs": [],
      "stateMutability": "nonpayable",
      "type": "function"
    },
    {
      "inputs": [
        {
          "internalType": "uint256",
          "name": "amount",
          "type": "uint256"
        }
      ],
      "name": "withdraw",
      "outputs": [],
      "stateMutability": "nonpayable",
      "type": "function"
    }
  ],
  "bytecode": "0x60806040523480156200001157600080fd5b50604051620019813803806200198183398181016040528101906200003791906200040d565b82600190805190602001906200004f9291906200015b565b508160029080519060200190620000689291906200015b565b5033600460006101000a81548173ffffffffffffffffffffffffffffffffffffffff021916908373ffffffffffffffffffffffffffffffffffffffff1602179055506103e860056000600460009054906101000a900473ffffffffffffffffffffffffffffffffffffffff1673ffffffffffffffffffffffffffffffffffffffff1673ffffffffffffffffffffffffffffffffffffffff16815260200190815260200160002081905550806000806101000a81548173ffffffffffffffffffffffffffffffffffffffff021916908373ffffffffffffffffffffffffffffffffffffffff1602179055505050506200050c565b8280546200016990620004d6565b90600052602060002090601f0160209004810192826200018d5760008555620001d9565b82601f10620001a857805160ff1916838001178555620001d9565b82800160010185558215620001d9579182015b82811115620001d8578251825591602001919060010190620001bb565b5b509050620001e89190620001ec565b5090565b5b8082111562000207576000816000905550600101620001ed565b5090565b6000604051905090565b600080fd5b600080fd5b600080fd5b600080fd5b6000601f19601f8301169050919050565b7f4e487b7100000000000000000000000000000000000000000000000000000000600052604160045260246000fd5b620002748262000229565b810181811067ffffffffffffffff821117156200029657620002956200023a565b5b80604052505050565b6000620002ab6200020b565b9050620002b9828262000269565b919050565b600067ffffffffffffffff821115620002dc57620002db6200023a565b5b620002e78262000229565b9050602081019050919050565b60005b8381101562000314578082015181840152602081019050620002f7565b8381111562000324576000848401525b50505050565b6000620003416200033b84620002be565b6200029f565b90508281526020810184848401111562000360576200035f62000224565b5b6200036d848285620002f4565b509392505050565b600082601f8301126200038d576200038c6200021f565b5b81516200039f8482602086016200032a565b91505092915050565b600073ffffffffffffffffffffffffffffffffffffffff82169050919050565b6000620003d582620003a8565b9050919050565b620003e781620003c8565b8114620003f357600080fd5b50565b6000815190506200040781620003dc565b92915050565b60008060006060848603121562000429576200042862000215565b5b600084015167ffffffffffffffff8111156200044a57620004496200021a565b5b620004588682870162000375565b935050602084015167ffffffffffffffff8111156200047c576200047b6200021a565b5b6200048a8682870162000375565b92505060406200049d86828701620003f6565b9150509250925092565b7f4e487b7100000000000000000000000000000000000000000000000000000000600052602260045260246000fd5b60006002820490506001821680620004ef57607f821691505b60208210811415620005065762000505620004a7565b5b50919050565b611465806200051c6000396000f3fe608060405234801561001057600080fd5b50600436106100a95760003560e01c806370a082311161007157806370a082311461015457806381983cd9146101845780638da5cb5b146101a257806395d89b41146101c0578063a9059cbb146101de578063b6b55f25146101fa576100a9565b806306fdde03146100ae57806318160ddd146100cc5780632e1a7d4d146100ea5780635cb543841461010657806365513fe514610124575b600080fd5b6100b6610216565b6040516100c39190610db6565b60405180910390f35b6100d46102a8565b6040516100e19190610df1565b60405180910390f35b61010460048036038101906100ff9190610e3d565b6102b2565b005b61010e61051f565b60405161011b9190610ee9565b60405180910390f35b61013e60048036038101906101399190610f42565b610543565b60405161014b9190610df1565b60405180910390f35b61016e60048036038101906101699190610f42565b61058c565b60405161017b9190610df1565b60405180910390f35b61018c6105d5565b6040516101999190610df1565b60405180910390f35b6101aa6105df565b6040516101b79190610f7e565b60405180910390f35b6101c8610605565b6040516101d59190610db6565b60405180910390f35b6101f860048036038101906101f39190610f99565b610697565b005b610214600480360381019061020f9190610e3d565b6108a0565b005b60606001805461022590611008565b80601f016020809104026020016040519081016040528092919081815260200182805461025190611008565b801561029e5780601f106102735761010080835404028352916020019161029e565b820191906000526020600020905b81548152906001019060200180831161028157829003601f168201915b5050505050905090565b60006103e8905090565b60008060009054906101000a900473ffffffffffffffffffffffffffffffffffffffff1673ffffffffffffffffffffffffffffffffffffffff166370a08231336040518263ffffffff1660e01b815260040161030e9190610f7e565b60206040518083038186803b15801561032657600080fd5b505afa15801561033a573d6000803e3d6000fd5b505050506040513d601f19601f8201168201806040525081019061035e919061104f565b1161039e576040517f08c379a0000000000000000000000000000000000000000000000000000000008152600401610395906110c8565b60405180910390fd5b60003390506000600460009054906101000a900473ffffffffffffffffffffffffffffffffffffffff1690506000600660008473ffffffffffffffffffffffffffffffffffffffff1673ffffffffffffffffffffffffffffffffffffffff16815260200190815260200160002054905083811015610451576040517f08c379a00000000000000000000000000000000000000000000000000000000081526004016104489061115a565b60405180910390fd5b61045c828486610b16565b83600660008573ffffffffffffffffffffffffffffffffffffffff1673ffffffffffffffffffffffffffffffffffffffff16815260200190815260200160002060008282546104ab91906111a9565b9250508190555083600360008282546104c491906111a9565b925050819055508273ffffffffffffffffffffffffffffffffffffffff167f68577e4d693c1b056a60bc4e39438810239a0bfe64869c4eb7e3baebb5f65634856040516105119190610df1565b60405180910390a250505050565b60008054906101000a900473ffffffffffffffffffffffffffffffffffffffff1681565b6000600660008373ffffffffffffffffffffffffffffffffffffffff1673ffffffffffffffffffffffffffffffffffffffff168152602001908152602001600020549050919050565b6000600560008373ffffffffffffffffffffffffffffffffffffffff1673ffffffffffffffffffffffffffffffffffffffff168152602001908152602001600020549050919050565b6000600354905090565b600460009054906101000a900473ffffffffffffffffffffffffffffffffffffffff1681565b60606002805461061490611008565b80601f016020809104026020016040519081016040528092919081815260200182805461064090611008565b801561068d5780601f106106625761010080835404028352916020019161068d565b820191906000526020600020905b81548152906001019060200180831161067057829003601f168201915b5050505050905090565b60008060009054906101000a900473ffffffffffffffffffffffffffffffffffffffff1673ffffffffffffffffffffffffffffffffffffffff166370a08231336040518263ffffffff1660e01b81526004016106f39190610f7e565b60206040518083038186803b15801561070b57600080fd5b505afa15801561071f573d6000803e3d6000fd5b505050506040513d601f19601f82011682018060405250810190610743919061104f565b11610783576040517f08c379a000000000000000000000000000000000000000000000000000000000815260040161077a906110c8565b60405180910390fd5b3373ffffffffffffffffffffffffffffffffffffffff16600460009054906101000a900473ffffffffffffffffffffffffffffffffffffffff1673ffffffffffffffffffffffffffffffffffffffff16141561088b578060035460056000600460009054906101000a900473ffffffffffffffffffffffffffffffffffffffff1673ffffffffffffffffffffffffffffffffffffffff1673ffffffffffffffffffffffffffffffffffffffff1681526020019081526020016000205461084991906111a9565b101561088a576040517f08c379a00000000000000000000000000000000000000000000000000000000081526004016108819061124f565b60405180910390fd5b5b600033905061089b818484610b16565b505050565b60008060009054906101000a900473ffffffffffffffffffffffffffffffffffffffff1673ffffffffffffffffffffffffffffffffffffffff166370a08231336040518263ffffffff1660e01b81526004016108fc9190610f7e565b60206040518083038186803b15801561091457600080fd5b505afa158015610928573d6000803e3d6000fd5b505050506040513d601f19601f8201168201806040525081019061094c919061104f565b1161098c576040517f08c379a0000000000000000000000000000000000000000000000000000000008152600401610983906110c8565b60405180910390fd5b3373ffffffffffffffffffffffffffffffffffffffff16600460009054906101000a900473ffffffffffffffffffffffffffffffffffffffff1673ffffffffffffffffffffffffffffffffffffffff161415610a1d576040517f08c379a0000000000000000000000000000000000000000000000000000000008152600401610a14906112bb565b60405180910390fd5b60003390506000600460009054906101000a900473ffffffffffffffffffffffffffffffffffffffff169050610a54828285610b16565b82600660008473ffffffffffffffffffffffffffffffffffffffff1673ffffffffffffffffffffffffffffffffffffffff1681526020019081526020016000206000828254610aa391906112db565b925050819055508260036000828254610abc91906112db565b925050819055508173ffffffffffffffffffffffffffffffffffffffff167f20b3fc91390f6ceba342f697a9490734680fd3556633f40efa146f1dbe79d05f84604051610b099190610df1565b60405180910390a2505050565b600073ffffffffffffffffffffffffffffffffffffffff168273ffffffffffffffffffffffffffffffffffffffff161415610b86576040517f08c379a0000000000000000000000000000000000000000000000000000000008152600401610b7d906113a3565b60405180910390fd5b6000600560008573ffffffffffffffffffffffffffffffffffffffff1673ffffffffffffffffffffffffffffffffffffffff16815260200190815260200160002054905081811015610c0d576040517f08c379a0000000000000000000000000000000000000000000000000000000008152600401610c049061140f565b60405180910390fd5b8181610c1991906111a9565b600560008673ffffffffffffffffffffffffffffffffffffffff1673ffffffffffffffffffffffffffffffffffffffff1681526020019081526020016000208190555081600560008573ffffffffffffffffffffffffffffffffffffffff1673ffffffffffffffffffffffffffffffffffffffff1681526020019081526020016000206000828254610cab91906112db565b925050819055508273ffffffffffffffffffffffffffffffffffffffff168473ffffffffffffffffffffffffffffffffffffffff167fd0ed88a3f042c6bbb1e3ea406079b5f2b4b198afccaa535d837f4c63abbc4de684604051610d0f9190610df1565b60405180910390a350505050565b600081519050919050565b600082825260208201905092915050565b60005b83811015610d57578082015181840152602081019050610d3c565b83811115610d66576000848401525b50505050565b6000601f19601f8301169050919050565b6000610d8882610d1d565b610d928185610d28565b9350610da2818560208601610d39565b610dab81610d6c565b840191505092915050565b60006020820190508181036000830152610dd08184610d7d565b905092915050565b6000819050919050565b610deb81610dd8565b82525050565b6000602082019050610e066000830184610de2565b92915050565b600080fd5b610e1a81610dd8565b8114610e2557600080fd5b50565b600081359050610e3781610e11565b92915050565b600060208284031215610e5357610e52610e0c565b5b6000610e6184828501610e28565b91505092915050565b600073ffffffffffffffffffffffffffffffffffffffff82169050919050565b6000819050919050565b6000610eaf610eaa610ea584610e6a565b610e8a565b610e6a565b9050919050565b6000610ec182610e94565b9050919050565b6000610ed382610eb6565b9050919050565b610ee381610ec8565b82525050565b6000602082019050610efe6000830184610eda565b92915050565b6000610f0f82610e6a565b9050919050565b610f1f81610f04565b8114610f2a57600080fd5b50565b600081359050610f3c81610f16565b92915050565b600060208284031215610f5857610f57610e0c565b5b6000610f6684828501610f2d565b91505092915050565b610f7881610f04565b82525050565b6000602082019050610f936000830184610f6f565b92915050565b60008060408385031215610fb057610faf610e0c565b5b6000610fbe85828601610f2d565b9250506020610fcf85828601610e28565b9150509250929050565b7f4e487b7100000000000000000000000000000000000000000000000000000000600052602260045260246000fd5b6000600282049050600182168061102057607f821691505b6020821081141561103457611033610fd9565b5b50919050565b60008151905061104981610e11565b92915050565b60006020828403121561106557611064610e0c565b5b60006110738482850161103a565b91505092915050565b7f6e6f74204e4654206d656d626572000000000000000000000000000000000000600082015250565b60006110b2600e83610d28565b91506110bd8261107c565b602082019050919050565b600060208201905081810360008301526110e1816110a5565b9050919050565b7f416e20616d6f756e742067726565746572207468616e20796f757220746f6b6560008201527f6e42616e6b2062616c616e636521000000000000000000000000000000000000602082015250565b6000611144602e83610d28565b915061114f826110e8565b604082019050919050565b6000602082019050818103600083015261117381611137565b9050919050565b7f4e487b7100000000000000000000000000000000000000000000000000000000600052601160045260246000fd5b60006111b482610dd8565b91506111bf83610dd8565b9250828210156111d2576111d161117a565b5b828203905092915050565b7f416d6f756e74732067726561746572207468616e2074686520746f74616c207360008201527f7570706c792063616e6e6f74206265207472616e736665727265640000000000602082015250565b6000611239603b83610d28565b9150611244826111dd565b604082019050919050565b600060208201905081810360008301526112688161122c565b9050919050565b7f4f776e65722063616e6e6f742065786563757465000000000000000000000000600082015250565b60006112a5601483610d28565b91506112b08261126f565b602082019050919050565b600060208201905081810360008301526112d481611298565b9050919050565b60006112e682610dd8565b91506112f183610dd8565b9250827fffffffffffffffffffffffffffffffffffffffffffffffffffffffffffffffff038211156113265761132561117a565b5b828201905092915050565b7f5a65726f20616464726573732063616e6e6f742062652073706563696669656460008201527f20666f722027746f272100000000000000000000000000000000000000000000602082015250565b600061138d602a83610d28565b915061139882611331565b604082019050919050565b600060208201905081810360008301526113bc81611380565b9050919050565b7f496e73756666696369656e742062616c616e6365210000000000000000000000600082015250565b60006113f9601583610d28565b9150611404826113c3565b602082019050919050565b60006020820190508181036000830152611428816113ec565b905091905056fea26469706673582212201db1c8f82566f068909e38ae4ec385b528661b35f118427c17655f4e7196de8264736f6c63430008090033",
  "linkReferences": {},
  "deployedLinkReferences": {}
}